:040000000DEF00F010
:0400080094EF20F061
:06001800FF0031EF21F0B2
:0D3700000000010203040506070850010047
:10370E006DC5D9F46EC5DAF4DEC472F5DEC473F598
:10371E00DEC474F5DEC475F5050120EE04F06D51BE
:10372E00D9266E51DA22DFA09FEF1BF0A1EF1BF01E
:10373E00DAEF1BF020EE01F06B51D9266C51DA2234
:10374E007239E842F80BF80BDF6E050E6F6FD890EA
:10375E0075337433733372336F2FAEEF1BF020EE6D
:10376E0002F06B51D9266C51DA2272C5DFF473C5A3
:10377E0072F574C573F575C574F5756B20EE03F0AF
:10378E006B51D9266C51DA2272511F0BDF6E050E6A
:10379E006F6FD89075337433733372336F2FD0EFDE
:1037AE001BF0F1EF1BF020EE03F06B51D9266C519C
:1037BE00DA22DF6A10EE02F06B51E1266C51E22242
:1037CE00DFC4E7F420EE01F06B51D9266C51DA22FA
:1037DE00E7C4DFF46BC5D9F46CC5DAF472C5DFF457
:1037EE0073C572F574C573F575C574F5756B72C5D1
:1037FE006FF5070E6F1720EE01F06B51D9266C5145
:10380E00DA226F51DF1220EE04F06D51D9266E517F
:10381E00DA22DF30E8320F0B716F20EE04F06D51BB
:10382E00D9266E51DA22DFB01FEF1CF023EF1CF009
:10383E006F6B6F2B25EF1CF005016F6B6F39F00B63
:10384E00711320EE04F06D51D9266E51DA22DFB2DB
:10385E0033EF1CF037EF1CF0200E6F6F39EF1CF0BA
:10386E0005016F6B6F51711320EE04F06D51D92667
:10387E006E51DA22DFBE46EF1CF04AEF1CF0400E0E
:10388E006F6F4CEF1CF005016F6B6F51711320EED3
:10389E0004F06D51D9266E51DA22DFBC59EF1CF0BF
:1038AE005DEF1CF0800E6F6F5FEF1CF005016F6B0C
:1038BE006F51711320EE04F06B51D9266C51DA2240
:1038CE0071C5DFF420EE04F06D51D9266E51DA2267
:1038DE00DFB274EF1CF076EF1CF09FEF1CF0080EB9
:1038EE006B25606F000E6C21616F20EE05F06D513F
:1038FE00D9266E51DA22DEC462F5DDC463F520EE00
:10390E0004F06D51D9266E51DA22DF30E8320F0BFA
:10391E006F6F6F51010F706F70C5F6F4370EF76E43
:10392E00000EF86E0800F550646F656B6BEC20F0BE
:10393E00120020EE04F00C50D9260D50DA22DF5082
:10394E00166E16C510F520EE04F00E50D9260F5047
:10395E00DA2210461046DF501018C30B1018DF6E17
:10396E0016B8BCEF1CF0C0EF1CF0106A102AC1EFA5
:10397E001CF0106A20EE04F00E50D9260F50DA22F9
:10398E00DF501018FE0B1018DF6E16BAD1EF1CF0B8
:10399E00D5EF1CF0106A102AD6EF1CF0106A20EE3C
:1039AE0004F00E50D9260F50DA221046DF501018B0
:1039BE00FD0B1018DF6E16BCE7EF1CF0EBEF1CF0E2
:1039CE00106A102AECEF1CF0106A20EE04F00E5074
:1039DE00D9260F50DA2210321032DF5010187F0B1A
:1039EE001018DF6E16BEFEEF1CF002EF1DF0106A0F
:1039FE00102A03EF1DF0106A20EE04F00E50D926A7
:103A0E000F50DA22103A10461046DF501018BF0B36
:103A1E001018DF6E20EE01F00C50D9260D50DA2270
:103A2E00DF50106E070E10161050126E136A146AC5
:103A3E00156A14C515F513C514F512C513F5126ADA
:103A4E000CC5D9F40DC5DAF4DF50106E10501212F9
:103A5E0020EE04F00E50D9260F50DA22DFA03AEFF6
:103A6E001DF03CEF1DF07DEF1DF0050ED8901236C7
:103A7E00133614361536E82E3DEF1DF020EE03F00A
:103A8E000C50D9260D50DA22DF50106E1F0E101674
:103A9E001050121214C515F513C514F512C513F5F1
:103AAE00126A20EE02F00C50D9260D50DA22DF50A9
:103ABE00106E10501212050ED890123613361436A0
:103ACE001536E82E63EF1DF020EE01F00C50D926CE
:103ADE000D50DA22DF50106ED8901032D89010327E
:103AEE00D89010321F0E1016105012120EC5D9F4A7
:103AFE000FC5DAF412C5DEF413C5DEF414C5DEF418
:103B0E0015C5DEF4370E016E050E026E080E0C247E
:103B1E00036E000E0D20046E20EE04F00E50D9261A
:103B2E000F50DA22DF30E8320F0B106E1050010FFB
:103B3E00116E11C5F6F4370EF76E000EF86E080012
:103B4E00F550056E066AE6EC20F020EE05F00E50FC
:103B5E00D9260F50DA22370EDE6E050EDD6E1200FC
:103B6E000501666F000E0501676F20EE04F06151CE
:103B7E00D9266251DA22DF50686F68AFC9EF1DF0A7
:103B8E00CBEF1DF0D7EF1DF049EC22F0060AD8A4BA
:103B9E00D3EF1DF0D5EF1DF0D7EF1DF005016783B4
:103BAE0005016831E8320F0B636F080E6365E2EFB3
:103BBE001DF0E4EF1DF0F7EF1DF068ADE9EF1DF01D
:103BCE00EBEF1DF0F5EF1DF049EC22F0060AD8A43C
:103BDE00F3EF1DF0F5EF1DF0F7EF1DF00501678116
:103BEE00090EF66E370EF76E000EF86E0800F5C46D
:103BFE0063F505016831E8320F0B646F6451010FF4
:103C0E00656F65C5F6F4370EF76E000EF86E080098
:103C1E00F550635DD8B016EF1EF018EF1EF019EFD9
:103C2E001EF067816651E6EC21F00009D8A422EF60
:103C3E001EF024EF1EF027EF1EF0030E0501671392
:103C4E00050167511200206E000E1C6E17500DEC10
:103C5E0022F01F6E1FA036EF1EF038EF1EF09BEF06
:103C6E001EF017500C0D580EF324D96E010EF420D1
:103C7E00DA6EDEC41DF5DDC41EF51D501E10D8B45F
:103C8E004BEF1EF04DEF1EF09BEF1EF01DC50CF519
:103C9E001EC50DF518C50EF519C50FF5A0EC1CF0D7
:103CAE0017500C0D510EF324D96E010EF420DA6E5E
:103CBE00000EDB802050020D8F0EF324D96E050E00
:103CCE00F420DA6EDF2A1750D7EC21F01A6E20504E
:103CDE00020D8F0EF324D96E050EF420DA6E1A50F3
:103CEE00DE5CD8A07DEF1EF07FEF1EF088EF1EF099
:103CFE002050020D8F0EF324D96E050EF420DA6ECD
:103D0E00DF6A1FA68DEF1EF08FEF1EF099EF1EF0EB
:103D1E0017500C0D540EF324D96E010EF420DA6EEA
:103D2E00F70EDF16010E1C6E1C501200F4EC21F083
:103D3E00D00E0501606F420E616F000E626F2DECAA
:103D4E0022F0D68E330E05017D6FBB0E7C6FDF0E1B
:103D5E00E82EFED77C2FFCD77D2FFAD700D049EC6A
:103D6E0022F0040AD8A4BEEF1EF0C0EF1EF0C3EF7F
:103D7E001EF0060EB2EC1FF049EC22F0060AD8A493
:103D8E00CBEF1EF0CDEF1EF000EF1FF0010E050180
:103D9E007E6F000E7F6F000E806F000E816F829D12
:103DAE00829F8251C30B0409826F82938281900E8F
:103DBE00836F050E846F000E4FEC21F0E806D8A439
:103DCE00EBEF1EF0EDEF1EF000EF1FF07E0E050183
:103DDE00766F050E776F000E65EC1FF0000E4FEC40
:103DEE0021F00009D8B4FEEF1EF000EF1FF0F5EF42
:103DFE001EF00501902BA9EF1EF00DEF00F0000E46
:103E0E000301F96F000EFA6F000ED86F000EFB6FF4
:103E1E00000ED96F000EDA6F000EDB6F000EDC6F36
:103E2E00000EDF6F000EE06F000EE36F000EE46F0A
:103E3E00000EE56F000EE66F000EE76F000EEA6FE4
:103E4E00000EEB6F000EEC6F000EEE6F000EEF6FBC
:103E5E00000EF06F000EF16F000EF26F000EF36F9A
:103E6E00000EF46F100EF56F000EF66F000EF76F6A
:103E7E00000EF86F000EFC6FAF94AF96B090000E70
:103E8E000501606F000E616F000E626F42EC22F052
:103E9E00000E0501606F000E616F000E626F34EC54
:103EAE0022F0000E0501606F000E616F000E626F52
:103EBE003BEC22F0840E0301F36F120005017B6FC1
:103ECE0005017B510EEC21F00009D8B471EF1FF003
:103EDE0073EF1FF0B1EF1FF076C561F577C562F590
:103EEE0005017B51B7EC1DF00501786F7851D8A410
:103EFE0083EF1FF085EF1FF0B1EF1FF07B510C0D1C
:103F0E00580EF324D96E010EF420DA6EDEC479F564
:103F1E00DDC47AF579517A11D8B498EF1FF09AEF83
:103F2E001FF0B1EF1FF079C56BF57AC56CF576C54C
:103F3E006DF577C56EF587EC1BF005017B510C0D09
:103F4E00510EF324D96E010EF420DA6E030EDF1239
:103F5E00B1EF1FF012000501626F000E0501616FD7
:103F6E0049EC22F00501606F040E6019D8B4C2EF5F
:103F7E001FF0C4EF1FF0D5EF1FF06205D8B4CAEFE3
:103F8E001FF0CCEF1FF0D5EF1FF0040E6219D8A46E
:103F9E00D3EF1FF0D5EF1FF0FAEF1FF00101035121
:103FAE0005016219F80B62190101036FECEF1FF0A6
:103FBE0001011DA9E5EF1FF0E7EF1FF0ECEF1FF079
:103FCE00020E0501616FFCEF1FF00239E832070B9C
:103FDE0005016219D8A4F6EF1FF0F8EF1FF0DFEF1E
:103FEE001FF0FCEF1FF0010E616F61511200000E09
:103FFE00C26E000EC16E000EBE6E000EBF6E000EC3
:10400E00C06E070ECA6EC70EC66EEF0EC76EC00E1E
:10401E00C86E0E0EC96EFD0E0401186F1069DF0E0C
:10402E00086F070E206F0069000E196F000E216FCA
:10403E00000E096F000E016F000E116F000E226F41
:10404E00000E026F000E0A6F000E126F000E1A6F36
:10405E0003690B6913691B69070E236F04690C69E9
:10406E0014691C690F0E246F190E02013D6F460E66
:10407E00196F12000101018F040EB2EC1FF000093E
:10408E00D8A44CEF20F04EEF20F06AEF20F0000E97
:10409E0001014C6F380E4D6F000E4E6F000E4F6FBC
:1040AE00600E006F970E016F100E026F23EC22F060
:1040BE0019EC22F080EC21F051EC22F097EC21F07B
:1040CE00060EB2EC1FF0120062C568F563C569F505
:1040DE0060C566F561C567F585EF20F068C5D9F452
:1040EE0069C5DAF4DF506A6F684B692B66C5D9F47F
:1040FE0067C5DAF46AC5DFF4664B672B0501640702
:10410E00D8A06507642906E16529D8A491EF20F0AF
:10411E0093EF20F075EF20F01200FAC42EF5FBC4D9
:10412E002FF5F6C430F5F7C431F5F8C432F5F5C401
:10413E0033F5A2A8A5EF20F0A7EF20F0B0EF20F006
:10414E00B2A8ACEF20F0AEEF20F0B0EF20F0ADEC67
:10415E0021F033C5F5F432C5F8F431C5F7F430C5A6
:10416E00F6F42FC5FBF42EC5FAF41100246E000EE2
:10417E00256E2550020D8E0EF324D96E050EF420F9
:10418E00DA6E2450DE18D8A4CFEF20F0D1EF20F055
:10419E00DCEF20F024C517F521C518F522C519F559
:1041AE0025502AEC1EF0E5EF20F0252A2550D8B434
:1041BE00E3EF20F0E5EF20F0C0EF20F0120003C592
:1041CE0009F504C50AF501C507F502C508F500EFA6
:1041DE0021F009C5D9F40AC5DAF4DF500B6E094A8D
:1041EE000A2A07C5D9F408C5DAF40BC5DFF4074A65
:1041FE00082A0506D8A00606052806E10628D8A432
:10420E000BEF21F00DEF21F0F0EF20F01200050181
:10421E00616F000E0501606F040E616119EF21F0F0
:10422E001BEF21F02EEF21F061510C0D500EF324F7
:10423E00D96E010EF420DA6E0101DFAE29EF21F006
:10424E002BEF21F02EEF21F0010E0501606F05011D
:10425E0060511200A00EF66E440EF76E000EF86E50
:10426E000900F5C48EF50900F5C48FF50501906BB4
:10427E0001EE34F10B0EEE6AE806FDE10401080EC4
:10428E005D6F000E5E6F000E5F6F00019DEF1EF002
:10429E000501636F000E0501626F63510EEC21F094
:1042AE000009D8B45DEF21F05FEF21F065EF21F04A
:1042BE0005016351E6EC21F00501626F05016251C3
:1042CE001200270E216E050E226E010EBDEC20F09F
:1042DE002CC5D9F42DC5DAF4420EDE18D8A47AEF27
:1042EE0021F07CEF21F07FEF21F0000E0501906FA1
:1042FE001200040E01015C6F040E5D6F600E5E6FA6
:10430E00000E5F6FA40E0501606F440E616F000E0C
:10431E00626F2DEC22F001011E83B298A28812006A
:10432E00000E0501606F6051020D8F0EF324D96EE1
:10433E00050EF420DA6EDF6A602B6051D8B4AAEF56
:10434E0021F0ACEF21F09AEF21F01200010160A5EF
:10435E00B3EF21F0B5EF21F0C2EF21F002D8C2EF9A
:10436E0021F00500FA6E3450FD6E3550FE6E36505B
:10437E00FF6EFA5012001200000E0001606F000E68
:10438E00616F000E626F000E636F000E646F000EA1
:10439E00656F000E666F000E676F000E686F12007D
:1043AE00026E02500C0D530EF324D96E010EF42042
:1043BE00DA6EDF50016E1F0E011601281200050184
:1043CE00606F050160510C0D540EF324D96E010E71
:1043DE00F420DA6EDF50010B12004EEC22F0C3EC2B
:1043EE0021F0FEEC1FF006EC1FF001EC22F041EC88
:1043FE0020F01200700E0001AD6F000EAF6F000EB8
:10440E00B36F020EB16F000EB06F1200016E01504D
:10441E000C0D540EF324D96E010EF420DA6EDF501B
:10442E00090B1200000E0101506F040E516F600E49
:10443E00526F000E536F12000F0E0101046F0F0E1C
:10444E00056F3E0E066F000E076F120060C534F545
:10445E0061C535F562C536F5120060C588F561C5D2
:10446E0089F562C58AF5120060C585F561C586F5C8
:10447E0062C587F5120060C58BF561C58CF562C506
:10448E008DF5120001010239E832070B1200D69A9F
:08449E001200010012001200DF
:020000040030CA
:10000000FAEFF7FF9FFFFFFFFFFFFFFFFFFFFFFF7D
:03001000FFFFFFF0
:08001700FFFFFFFFFFFFFFFFE9
:00000001FF
