:040000000DEF00F010
:0400080075EF2CF074
:06001800FF0013EF2CF0C5
:0D3700000000010203040506070850010047
:10370E00807F7F7F7F7F7F7F7F7F7F7F7F7F7F7FBA
:10371E007F7F7F7F7F7F7F7F7F7F7F7F7F7F7F7FAB
:10372E007F7F7F7F7F7F7F7F7F7F7F7F7F7F7F7F9B
:10373E007F7F7F7F7F7F7F7F7F7F7F7F7F7F7F7F8B
:10374E007F7F7F7F7F7F7F7F7F7F7F7F7F7F7F7F7B
:10375E007F7F7F7F7F7F7F7F7F7F7F7F7F7F7F7F6B
:10376E007F7F7F7F7F7F7F7F7F7F7F7F7F7F7F7F5B
:10377E007F7F7F7F7F7F7F7F7F7F7F7F7F7F7F7F4B
:10378E007F7F7F7F7F7F7F7F7F7F7F7F7F7F7F7F3B
:10379E007F7F7F7F7F7F7F7F7F7F7F7F7F7F7F7F2B
:1037AE007F7F7F7F7F7F7F7F7F7F7F7F7F7F7F7F1B
:1037BE007F7F7F7F7F7F7F7F7F7F7F7F7F7F7F7F0B
:1037CE007F7F7F7F7F7F7F7F7F7F7F7F7F7F7F7FFB
:1037DE007F7F7F7E7E7E7E7D7D7D7D7D7C7C7C7C05
:1037EE007B7B7B7B7B7A7A7A7A7A7979797979782D
:1037FE007878787877777777777676767676757550
:10380E00757575747474747474737373737373726F
:10381E00727272727171717171717070707070708C
:10382E006F6F6F6F6F6F6F6E6E6E6E6E6E6D6D6DA6
:10383E006D6D6D6D6C6C6C6C6C6C6B6B6B6B6B6BBC
:10384E006B6A6A6A6A6A6A6A6969696969696969D1
:10385E0068686868686868676767676767676766E4
:10386E0066666666666666656565656565656564F4
:10387E006464646464646463636363636363636303
:10388E006262626262626262616161616161616112
:10389E00616060606060606060605F5F5F5F5F5F1F
:1038AE005F5F5F5F5E5E5E5E5E5E5E5E5E5D5D5D29
:1038BE005D5D5D5D5D5D5D5C5C5C5C5C5C5C5C5C33
:1038CE005C5B5B5B5B5B5B5B5B5B5B5B5A5A5A5A3D
:1038DE005A5A5A5A5A5A5A59595959595959595943
:1038EE00595958585858585858585858585757574B
:1038FE005757575757575757565656565656565652
:10390E005656565655555555555555555555555555
:10391E00545454545454545454545454545353535C
:10392E005353535353535353535252525252525260
:10393E005252525252525251515151515151515162
:10394E005151515150505050505050505050505065
:10395E0050504F4F4F4F4F4F4F4F4F4F4F4F4F4F67
:10396E004E4E4E4E4E4E4E4E4E4E4E4E4E4E4D4D6B
:10397E004D4D4D4D4D4D4D4D4D4D4D4D4D4C4C4C6C
:10398E004C4C4C4C4C4C4C4C4C4C4C4C4C4B4B4B6C
:10399E004B4B4B4B4B4B4B4B4B4B4B4B4A4A4A4A6D
:1039AE004A4A4A4A4A4A4A4A4A4A4A4A494949496D
:1039BE00494949494949494949494949494848486C
:1039CE00484848484848484848484848484747476C
:1039DE00474747474747474747474747474747466A
:1039EE004646464646464646464646464646464669
:1039FE004545454545454545454545454545454569
:103A0E004545454444444444444444444444444465
:103A1E004444444444434343434343434343434363
:103A2E004343434343434343424242424242424260
:103A3E00424242424242424242424242414141415C
:103A4E004141414141414141414141414141414059
:103A5E004040404040404040404040404040404058
:103A6E00404040403F3F3F3F3F3F3F3F3F3F3F3F54
:103A7E003F3F3F3F3F3F3F3F3F3E3E3E3E3E3E3E4F
:103A8E003E3E3E3E3E3E3E3E3E3E3E3E3E3E3D3D4A
:103A9E003D3D3D3D3D3D3D3D3D3D3D3D3D3D3D3D48
:103AAE003D3D3D3D3C3C3C3C3C3C3C3C3C3C3C3C44
:103ABE003C3C3C3C3C3C3C3C3C3C3B3B3B3B3B3B3E
:103ACE003B3B3B3B3B3B3B3B3B3B3B3B3B3B3B3B38
:103ADE003B3A3A3A3A3A3A3A3A3A3A3A3A3A3A3A37
:103AEE003A3A3A3A3A3A3A3A3A393939393939392F
:103AFE003939393939393939393939393939393928
:103B0E003938383838383838383838383838383826
:103B1E00383838383838383838373737373737371E
:103B2E003737373737373737373737373737373717
:103B3E003737363636363636363636363636363615
:103B4E00363636363636363636363636353535350B
:103B5E003535353535353535353535353535353507
:103B6E003535353535353434343434343434343401
:103B7E0034343434343434343434343434343434F7
:103B8E0033333333333333333333333333333333F7
:103B9E0033333333333333333333333332323232EB
:103BAE0032323232323232323232323232323232E7
:103BBE0032323232323232313131313131313131E0
:103BCE0031313131313131313131313131313131D7
:103BDE0031313131303030303030303030303030D3
:103BEE0030303030303030303030303030303030C7
:103BFE00302F2F2F2F2F2F2F2F2F2F2F2F2F2F2FC6
:103C0E002F2F2F2F2F2F2F2F2F2F2F2F2F2F2E2EB8
:103C1E002E2E2E2E2E2E2E2E2E2E2E2E2E2E2E2EB6
:103C2E002E2E2E2E2E2E2E2E2E2E2E2E2D2D2D2DAA
:103C3E002D2D2D2D2D2D2D2D2D2D2D2D2D2D2D2DA6
:103C4E002D2D2D2D2D2D2D2D2D2D2C2C2C2C2C2C9C
:103C5E002C2C2C2C2C2C2C2C2C2C2C2C2C2C2C2C96
:103C6E002C2C2C2C2C2C2C2C2C2B2B2B2B2B2B2B8D
:103C7E002B2B2B2B2B2B2B2B2B2B2B2B2B2B2B2B86
:103C8E002B2B2B2B2B2B2B2B2B2A2A2A2A2A2A2A7D
:103C9E002A2A2A2A2A2A2A2A2A2A2A2A2A2A2A2A76
:103CAE002A2A2A2A2A2A2A2A2A292929292929296D
:103CBE002929292929292929292929292929292966
:103CCE00292929292929292929292828282828285C
:103CDE002828282828282828282828282828282856
:103CEE00282828282828282828282827272727274B
:103CFE002727272727272727272727272727272746
:103D0E002727272727272727272727272726262638
:103D1E002626262626262626262626262626262635
:103D2E002626262626262626262626262626262526
:103D3E002525252525252525252525252525252525
:103D4E002525252525252525252525252525252515
:103D5E002525242424242424242424242424242413
:103D6E002424242424242424242424242424242405
:103D7E002424242424232323232323232323232300
:103D8E0023232323232323232323232323232323F5
:103D9E0023232323232323232322222222222222EC
:103DAE0022222222222222222222222222222222E5
:103DBE0022222222222222222222222222212121D8
:103DCE0021212121212121212121212121212121D5
:103DDE0021212121212121212121212121212121C5
:103DEE0021202020202020202020202020202020C4
:103DFE0020202020202020202020202020202020B5
:103E0E002020202020201F1F1F1F1F1F1F1F1F1FAE
:103E1E001F1F1F1F1F1F1F1F1F1F1F1F1F1F1F1FA4
:103E2E001F1F1F1F1F1F1F1F1F1F1F1F1E1E1E1E98
:103E3E001E1E1E1E1E1E1E1E1E1E1E1E1E1E1E1E94
:103E4E001E1E1E1E1E1E1E1E1E1E1E1E1E1E1E1E84
:103E5E001E1E1D1D1D1D1D1D1D1D1D1D1D1D1D1D82
:103E6E001D1D1D1D1D1D1D1D1D1D1D1D1D1D1D1D74
:103E7E001D1D1D1D1D1D1D1D1C1C1C1C1C1C1C1C6C
:103E8E001C1C1C1C1C1C1C1C1C1C1C1C1C1C1C1C64
:103E9E001C1C1C1C1C1C1C1C1C1C1C1C1C1C1C1B55
:103EAE001B1B1B1B1B1B1B1B1B1B1B1B1B1B1B1B54
:103EBE001B1B1B1B1B1B1B1B1B1B1B1B1B1B1B1B44
:103ECE001B1B1B1B1B1B1A1A1A1A1A1A1A1A1A1A3E
:103EDE001A1A1A1A1A1A1A1A1A1A1A1A1A1A1A1A34
:103EEE001A1A1A1A1A1A1A1A1A1A1A1A1A19191927
:103EFE001919191919191919191919191919191924
:103F0E001919191919191919191919191919191913
:103F1E00191919191818181818181818181818180F
:103F2E001818181818181818181818181818181803
:103F3E0018181818181818181818181817171717F7
:103F4E0017171717171717171717171717171717F3
:103F5E0017171717171717171717171717171717E3
:103F6E0017171717161616161616161616161616DF
:103F7E0016161616161616161616161616161616D3
:103F8E0016161616161616161616161615151515C7
:103F9E0015151515151515151515151515151515C3
:103FAE0015151515151515151515151515151515B3
:103FBE0015151515151414141414141414141414AE
:103FCE0014141414141414141414141414141414A3
:103FDE001414141414141414141414141413131396
:103FEE001313131313131313131313131313131393
:103FFE001313131313131313131313131313131383
:10400E00131313131313121212121212121212127C
:10401E001212121212121212121212121212121272
:10402E001212121212121212121212121212111164
:10403E001111111111111111111111111111111162
:10404E001111111111111111111111111111111152
:10405E00111111111111111010101010101010104B
:10406E001010101010101010101010101010101042
:10407E001010101010101010101010101010101032
:10408E000F0F0F0F0F0F0F0F0F0F0F0F0F0F0F0F32
:10409E000F0F0F0F0F0F0F0F0F0F0F0F0F0F0F0F22
:1040AE000F0F0F0F0F0F0F0F0E0E0E0E0E0E0E0E1A
:1040BE000E0E0E0E0E0E0E0E0E0E0E0E0E0E0E0E12
:1040CE000E0E0E0E0E0E0E0E0E0E0E0E0E0E0E0E02
:1040DE000E0D0D0D0D0D0D0D0D0D0D0D0D0D0D0D01
:1040EE000D0D0D0D0D0D0D0D0D0D0D0D0D0D0D0DF2
:1040FE000D0D0D0D0D0D0D0D0D0C0C0C0C0C0C0CE9
:10410E000C0C0C0C0C0C0C0C0C0C0C0C0C0C0C0CE1
:10411E000C0C0C0C0C0C0C0C0C0C0C0C0C0C0C0CD1
:10412E000C0C0B0B0B0B0B0B0B0B0B0B0B0B0B0BCF
:10413E000B0B0B0B0B0B0B0B0B0B0B0B0B0B0B0BC1
:10414E000B0B0B0B0B0B0B0B0B0B0A0A0A0A0A0AB7
:10415E000A0A0A0A0A0A0A0A0A0A0A0A0A0A0A0AB1
:10416E000A0A0A0A0A0A0A0A0A0A0A0A0A0A0A0AA1
:10417E000A0A09090909090909090909090909099F
:10418E000909090909090909090909090909090991
:10419E000909090909090909090908080808080887
:1041AE000808080808080808080808080808080881
:1041BE000808080808080808080808080808080871
:1041CE000807070707070707070707070707070770
:1041DE000707070707070707070707070707070761
:1041EE000707070707070707060606060606060659
:1041FE000606060606060606060606060606060651
:10420E000606060606060606060606060606060541
:10421E000505050505050505050505050505050540
:10422E000505050505050505050505050505050530
:10423E00050505050505040404040404040404042A
:10424E000404040404040404040404040404040420
:10425E000404040404040404040404040303030314
:10426E000303030303030303030303030303030310
:10427E000303030303030303030303030303030300
:10428E0003020202020202020202020202020202FF
:10429E0002020202020202020202020202020202F0
:1042AE0002020202020202010101010101010101E9
:1042BE0001010101010101010101010101010101E0
:1042CE0001010101010101010101010000000000D5
:1042DE0000000000000000000000000000000000D0
:1042EE00000000000000000000000000000000FFC1
:1042FE00FFFFFFFFFFFFFFFFFFFFFFFFFFFFFFFFC0
:10430E00FFFFFFFFFFFFFFFFFFFFFFFFFFFFFFFFAF
:10431E00FFFFFFFEFEFEFEFEFEFEFEFEFEFEFEFEAC
:10432E00FEFEFEFEFEFEFEFEFEFEFEFEFEFEFEFE9F
:10433E00FEFEFEFEFEFEFDFDFDFDFDFDFDFDFDFD99
:10434E00FDFDFDFDFDFDFDFDFDFDFDFDFDFDFDFD8F
:10435E00FDFDFDFDFDFDFDFDFCFCFCFCFCFCFCFC87
:10436E00FCFCFCFCFCFCFCFCFCFCFCFCFCFCFCFC7F
:10437E00FCFCFCFCFCFCFCFCFCFCFBFBFBFBFBFB75
:10438E00FBFBFBFBFBFBFBFBFBFBFBFBFBFBFBFB6F
:10439E00FBFBFBFBFBFBFBFBFBFBFBFAFAFAFAFA64
:1043AE00FAFAFAFAFAFAFAFAFAFAFAFAFAFAFAFA5F
:1043BE00FAFAFAFAFAFAFAFAFAFAFAFAF9F9F9F953
:1043CE00F9F9F9F9F9F9F9F9F9F9F9F9F9F9F9F94F
:1043DE00F9F9F9F9F9F9F9F9F9F9F9F9F8F8F8F843
:1043EE00F8F8F8F8F8F8F8F8F8F8F8F8F8F8F8F83F
:1043FE00F8F8F8F8F8F8F8F8F8F8F8F7F7F7F7F734
:10440E00F7F7F7F7F7F7F7F7F7F7F7F7F7F7F7F72E
:10441E00F7F7F7F7F7F7F7F7F7F6F6F6F6F6F6F625
:10442E00F6F6F6F6F6F6F6F6F6F6F6F6F6F6F6F61E
:10443E00F6F6F6F6F6F6F6F5F5F5F5F5F5F5F5F517
:10444E00F5F5F5F5F5F5F5F5F5F5F5F5F5F5F5F50E
:10445E00F5F5F5F5F4F4F4F4F4F4F4F4F4F4F4F40A
:10446E00F4F4F4F4F4F4F4F4F4F4F4F4F4F4F4F4FE
:10447E00F3F3F3F3F3F3F3F3F3F3F3F3F3F3F3F3FE
:10448E00F3F3F3F3F3F3F3F3F3F3F3F3F2F2F2F2F2
:10449E00F2F2F2F2F2F2F2F2F2F2F2F2F2F2F2F2EE
:1044AE00F2F2F2F2F2F2F1F1F1F1F1F1F1F1F1F1E8
:1044BE00F1F1F1F1F1F1F1F1F1F1F1F1F1F1F1F1DE
:1044CE00F0F0F0F0F0F0F0F0F0F0F0F0F0F0F0F0DE
:1044DE00F0F0F0F0F0F0F0F0F0F0EFEFEFEFEFEFD4
:1044EE00EFEFEFEFEFEFEFEFEFEFEFEFEFEFEFEFCE
:1044FE00EFEFEEEEEEEEEEEEEEEEEEEEEEEEEEEECC
:10450E00EEEEEEEEEEEEEEEEEEEEEDEDEDEDEDEDC3
:10451E00EDEDEDEDEDEDEDEDEDEDEDEDEDEDEDEDBD
:10452E00EDECECECECECECECECECECECECECECECBC
:10453E00ECECECECECECECEBEBEBEBEBEBEBEBEBB6
:10454E00EBEBEBEBEBEBEBEBEBEBEBEBEBEAEAEAB0
:10455E00EAEAEAEAEAEAEAEAEAEAEAEAEAEAEAEAAD
:10456E00EAEAE9E9E9E9E9E9E9E9E9E9E9E9E9E9AB
:10457E00E9E9E9E9E9E9E8E8E8E8E8E8E8E8E8E8A7
:10458E00E8E8E8E8E8E8E8E8E8E7E7E7E7E7E7E7A4
:10459E00E7E7E7E7E7E7E7E7E7E7E7E7E6E6E6E6A1
:1045AE00E6E6E6E6E6E6E6E6E6E6E6E6E6E5E5E5A0
:1045BE00E5E5E5E5E5E5E5E5E5E5E5E5E5E5E5E49E
:1045CE00E4E4E4E4E4E4E4E4E4E4E4E4E4E4E4E39E
:1045DE00E3E3E3E3E3E3E3E3E3E3E3E3E3E3E3E29E
:1045EE00E2E2E2E2E2E2E2E2E2E2E2E2E2E2E1E19F
:1045FE00E1E1E1E1E1E1E1E1E1E1E1E1E1E0E0E0A0
:10460E00E0E0E0E0E0E0E0E0E0E0E0DFDFDFDFDFA1
:10461E00DFDFDFDFDFDFDFDFDEDEDEDEDEDEDEDEA4
:10462E00DEDEDEDEDEDDDDDDDDDDDDDDDDDDDDDDA7
:10463E00DDDDDCDCDCDCDCDCDCDCDCDCDCDBDBDBAD
:10464E00DBDBDBDBDBDBDBDBDADADADADADADADAB4
:10465E00DADADAD9D9D9D9D9D9D9D9D9D9D8D8D8BC
:10466E00D8D8D8D8D8D8D8D7D7D7D7D7D7D7D7D7C5
:10467E00D6D6D6D6D6D6D6D6D6D5D5D5D5D5D5D5D3
:10468E00D5D4D4D4D4D4D4D4D4D3D3D3D3D3D3D3E2
:10469E00D2D2D2D2D2D2D2D1D1D1D1D1D1D1D0D0F7
:1046AE00D0D0D0D0CFCFCFCFCFCFCECECECECECE0E
:1046BE00CDCDCDCDCDCCCCCCCCCCCBCBCBCBCBCA2E
:1046CE00CACACACAC9C9C9C9C8C8C8C8C7C7C7C655
:1046DE00C6C6C6C5C5C5C4C4C4C3C3C3C2C2C2C18F
:1046EE00C1C0C0C0BFBFBEBEBDBDBCBCBBBABAB9E7
:1046FE00B8B8B7B6B5B4B3B2B0AFADABA9A6A29CBD
:10470E0005017151800B7A6F71517125806F70AFF9
:10471E0093EF23F095EF23F096EF23F080818051F5
:10472E00D8B49CEF23F09EEF23F0B1EF23F0802955
:10473E00D8A4A4EF23F0A6EF23F0AEEF23F0000EE3
:10474E006E6F000E6F6F000E706F000E716F708FB8
:10475E00B9EF23F0000E6E6F000E6F6F000E706FCC
:10476E00000E716F7551800B7A1B755175257F6F19
:10477E0074AFC4EF23F0C6EF23F0C7EF23F07F81B1
:10478E007F51D8B4CDEF23F0CFEF23F0E2EF23F03B
:10479E007F29D8A4D5EF23F0D7EF23F0DFEF23F056
:1047AE00000E726F000E736F000E746F000E756F39
:1047BE00748FEAEF23F0000E726F000E736F000E0F
:1047CE00746F000E756F7F51D8B4F0EF23F0F2EFD7
:1047DE0023F0FAEF23F08051D8A4F8EF23F0FAEF8C
:1047EE0023F004EF24F0000E6E6F000E6F6F000EBC
:1047FE00706F000E716F9CEF25F074516E03F3C451
:10480E0085F5F4C486F585517B6F7C6B7D6B7E6B75
:10481E008651816F826B836B846B73516F03F3C40C
:10482E0085F5F4C486F585517B27000E7C237D2308
:10483E007E2386518127000E822383238423725187
:10484E007003F3C485F5F4C486F585517B27000EFD
:10485E007C237D237E2386518127000E8223832392
:10486E0084237DC57EF57CC57DF57BC57CF57B6B94
:10487E0072516F03F3C485F5F4C486F585517B2719
:10488E0086517C23000E7D23000E7E2373516E0312
:10489E00F3C485F5F4C486F585517B2786517C23B8
:1048AE00000E7D23000E7E237DC57EF57CC57DF535
:1048BE007BC57CF57B6B72516E03F3C485F5F4C436
:1048CE0086F585517B2786517C23000E7D23000EB5
:1048DE007E2374516F03F3C485F5F4C486F58551B8
:1048EE00812786518223000E8323000E8423735169
:1048FE007003F3C485F5F4C486F58551812786517E
:10490E008223000E8323000E842374517003F3C49C
:10491E0085F5F4C486F58551766F8651776F786B81
:10492E00796B78C579F577C578F576C577F5766BB9
:10493E0076518127775182237851832379518423AD
:10494E007BC576F57CC577F57DC578F57EC579F5A1
:10495E00190EB7EF24F0D890793378337733763356
:10496E00E82EB2EF24F076518127775182237851C9
:10497E008323795184237DC57EF57CC57DF57BC56A
:10498E007CF57B6B7F5180C576F5776B7627000EB5
:10499E007723820E7625856FFF0E7721866FEDEFDA
:1049AE0024F0D89081378237833784377EAFE2EF99
:1049BE0024F0E4EF24F0E5EF24F08181D8907B37EA
:1049CE007C377D377E378507D8A0860783AFF2EF19
:1049DE0024F0F4EF24F0D8EF24F0000E7F6F7EAFBA
:1049EE00FBEF24F0FDEF24F021EF25F0FF0E7B15F9
:1049FE00766FFF0E7C15776FFF0E7D15786F7F0E2D
:104A0E007E15796F7651771178117911D8B412EF2E
:104A1E0025F014EF25F018EF25F0010E7F6F21EF32
:104A2E0025F081A11DEF25F01FEF25F021EF25F0D8
:104A3E0014EF25F07F51D8B427EF25F029EF25F09C
:104A4E004DEF25F0010E8127000E82238323842350
:104A5E0084A134EF25F036EF25F04DEF25F081C51A
:104A6E0076F582C577F583C578F584C579F5793500
:104A7E00793378337733763376C581F577C582F51A
:104A8E0078C583F579C584F5854B862B86BF58EF9F
:104A9E0025F0865108E18529D8A058EF25F05AEF68
:104AAE0025F064EF25F0000E816F000E826F800EF0
:104ABE00836F7F0E846F92EF25F086BF71EF25F026
:104ACE00865106E18505D8B06FEF25F071EF25F020
:104ADE007DEF25F0000E816F000E826F000E836F4A
:104AEE00000E846F000E7A6F92EF25F085C580F56B
:104AFE00FF0E8117FF0E82177F0E8317000E84178D
:104B0E0080A18CEF25F08EEF25F08FEF25F0838FAF
:104B1E00D8908031846F7A51841381C56EF582C529
:104B2E006FF583C570F584C571F5120005018A51C4
:104B3E00800B976F8A518A259E6F89AFA9EF25F05A
:104B4E00ABEF25F0ACEF25F09E819E51D8B4B2EFBD
:104B5E0025F0B4EF25F0C9EF25F09E29D8A4BAEFC1
:104B6E0025F0BCEF25F0C4EF25F0000E876F000E88
:104B7E00886F000E896F000E8A6F898F000E8A6F04
:104B8E00D1EF25F0000E876F000E886F000E896F33
:104B9E00000E8A6F8E51800B971B8E518E259F6F44
:104BAE008DAFDCEF25F0DEEF25F0DFEF25F09F81F6
:104BBE009F51D8B4E5EF25F0E7EF25F0FCEF25F097
:104BCE009F29D8A4EDEF25F0EFEF25F0F7EF25F0B4
:104BDE00000E8B6F000E8C6F000E8D6F000E8E6FA1
:104BEE008D8F000E8E6F04EF26F0000E8B6F000E71
:104BFE008C6F000E8D6F000E8E6F8B518C118D1180
:104C0E008E11D8A40DEF26F00FEF26F027EF26F029
:104C1E00000E876F000E886F000E896F000E8A6F70
:104C2E00800E89137F0E8A1397518A1387C587F5D5
:104C3E0088C588F589C589F58AC58AF56AEF27F092
:104C4E009E51D8A42DEF26F02FEF26F039EF26F047
:104C5E00000E876F000E886F000E896F000E8A6F30
:104C6E006AEF27F09F519EC58FF5906B8F5F000EF8
:104C7E00905B7F0E8F25986F000E9021996F87C5E0
:104C8E0093F588C594F589C595F58AC596F5000EF8
:104C9E00876F000E886F000E896F000E8A6F000EF0
:104CAE009A6F000E9B6F000E9C6F000E9D6F000E94
:104CBE009F6F9AEF26F09F51D8B468EF26F06AEFF7
:104CCE0026F081EF26F0D8909337943795379637A4
:104CDE00D8908737883789378A379DAF79EF26F096
:104CEE007BEF26F07CEF26F08781D8909A379B37A2
:104CFE009C379D378B51935D8C5194598D5195599D
:104D0E008E519659D8A08EEF26F090EF26F099EF9F
:104D1E0026F09D8D8B51935F8C51945B8D51955BDD
:104D2E008E51965B9F2B190E9F65A0EF26F0A2EF7A
:104D3E0026F062EF26F09351941195119611D8B486
:104D4E00ABEF26F0ADEF26F0C5EF26F09A81C5EF5A
:104D5E0026F0D8908737883789378A379DAFBAEFD4
:104D6E0026F0BCEF26F0BDEF26F08781D8909A375B
:104D7E009B379C379D379807D8A0990789AFCAEF04
:104D8E0026F0CCEF26F0B0EF26F0000E9F6F9DAF11
:104D9E00D3EF26F0D5EF26F0F9EF26F0FF0E9A1599
:104DAE008F6FFF0E9B15906FFF0E9C15916F7F0EF0
:104DBE009D15926F8F51901191119211D8B4EAEF07
:104DCE0026F0ECEF26F0F0EF26F0010E9F6FF9EFD4
:104DDE0026F087A1F5EF26F0F7EF26F0F9EF26F093
:104DEE00ECEF26F09F51D8B4FFEF26F001EF27F03D
:104DFE0025EF27F0010E8727000E882389238A23AB
:104E0E008AA10CEF27F00EEF27F025EF27F087C5CC
:104E1E008FF588C590F589C591F58AC592F59235BD
:104E2E009233913390338F338FC587F590C588F5C4
:104E3E0091C589F592C58AF5984B992B99BF30EF9C
:104E4E0027F0995108E19829D8A030EF27F032EFDA
:104E5E0027F03DEF27F0000E996F9869000E876FCF
:104E6E00000E886F000E896F000E8A6F99BF4AEF91
:104E7E0027F0995106E19805D8B048EF27F04AEF90
:104E8E0027F058EF27F0000E996F000E986F000E66
:104E9E00876F000E886F000E896F000E8A6F000EEE
:104EAE00976F98C59EF59EA15FEF27F061EF27F0F3
:104EBE0064EF27F0898F65EF27F0899FD8909E3198
:104ECE008A6F1BEF26F0120020EE04F00C50D9264C
:104EDE000D50DA22DF50166E16C510F520EE04F0D6
:104EEE000E50D9260F50DA2210461046DF501018F9
:104EFE00C30B1018DF6E16B887EF27F08BEF27F075
:104F0E00106A102A8CEF27F0106A20EE04F00E5073
:104F1E00D9260F50DA22DF501018FE0B1018DF6E54
:104F2E0016BA9CEF27F0A0EF27F0106A102AA1EF17
:104F3E0027F0106A20EE04F00E50D9260F50DA2218
:104F4E001046DF501018FD0B1018DF6E16BCB2EFB6
:104F5E0027F0B6EF27F0106A102AB7EF27F0106A85
:104F6E0020EE04F00E50D9260F50DA2210321032F5
:104F7E00DF5010187F0B1018DF6E16BEC9EF27F02A
:104F8E00CDEF27F0106A102ACEEF27F0106A20EE30
:104F9E0004F00E50D9260F50DA22103A1046104661
:104FAE00DF501018BF0B1018DF6E20EE01F00C5002
:104FBE00D9260D50DA22DF50106E070E1016105043
:104FCE00126E136A146A156A14C515F513C514F515
:104FDE0012C513F5126A0CC5D9F40DC5DAF4DF50FB
:104FEE00106E1050121220EE04F00E50D9260F50F3
:104FFE00DA22DFA005EF28F007EF28F048EF28F0BF
:10500E00050ED8901236133614361536E82E08EFE4
:10501E0028F020EE03F00C50D9260D50DA22DF5086
:10502E00106E1F0E10161050121214C515F513C562
:10503E0014F512C513F5126A20EE02F00C50D926A3
:10504E000D50DA22DF50106E10501212050ED8904D
:10505E001236133614361536E82E2EEF28F020EEC3
:10506E0001F00C50D9260D50DA22DF50106ED89078
:10507E001032D8901032D89010321F0E10161050D9
:10508E0012120EC5D9F40FC5DAF412C5DEF413C52B
:10509E00DEF414C5DEF415C5DEF4360E016E050E13
:1050AE00026E080E0C24036E000E0D20046E20EE10
:1050BE0004F00E50D9260F50DA22DF30E8320F0BF3
:1050CE00106E1050010F116E11C5F6F4370EF76EFB
:1050DE00000EF86E0800F550056E066AC7EC2CF04F
:1050EE0020EE05F00E50D9260F50DA22360EDE6E67
:1050FE00050EDD6E12000501686F05016851D8B40A
:10510E008BEF28F08DEF28F0AFEF28F063BF94EF10
:10511E0028F092EF28F0AFEF28F060C564F561C576
:10512E0065F562C566F563C567F5641F651F661F85
:10513E00671F642B000E65236623672364C56AF51B
:10514E0065C56BF566C56CF567C56DF5B7EF28F0EF
:10515E0060C56AF561C56BF562C56CF563C56DF525
:10516E006051611162116311D8A4C0EF28F0C2EF33
:10517E0028F0CCEF28F0000E606F000E616F000E6D
:10518E00626F000E636F5DEF29F0960E696FD6EFBA
:10519E0028F0692BD8906D336C336B336A33000E65
:1051AE006A15646F000E6B15656F000E6C15666FD9
:1051BE00FE0E6D15676F6451651166116711D8A4E7
:1051CE00EBEF28F0EDEF28F0D0EF28F0FBEF28F012
:1051DE00692B010E6A27000E6B236C236D23D8906A
:1051EE006D336C336B336A33000E6A15646F000EC9
:1051FE006B15656F000E6C15666FFF0E6D15676F84
:10520E006451651166116711D8A410EF29F012EFE1
:10521E0029F0EFEF28F01AEF29F06907D8906A37D6
:10522E006B376C376D376CBF1FEF29F021EF29F00C
:10523E0029EF29F0020E696127EF29F029EF29F0F5
:10524E0014EF29F069B12EEF29F030EF29F031EF8C
:10525E0029F06C9FD890693369C564F5656B666BF0
:10526E00676B64C567F5666B656B646B64516A1337
:10527E0065516B1366516C1367516D136851D8B439
:10528E004BEF29F04DEF29F055EF29F063BF54EFA6
:10529E0029F052EF29F055EF29F06D8F6AC560F5B0
:1052AE006BC561F56CC562F56DC563F51200050140
:1052BE00A235A335A96FA951D8A468EF29F06AEFDA
:1052CE0029F074EF29F0000EA06F000EA16F000EF2
:1052DE00A26F000EA36FE1EF29F0A0C5A4F5A1C542
:1052EE00A5F5A2C5A6F5A3C5A7F5200E84EF29F056
:1052FE00D890A733A633A533A433E82E7FEF29F039
:10530E00A451A86FA28FFF0EA017FF0EA117FF0EBC
:10531E00A217000EA317960EA95FA9BF9BEF29F047
:10532E0099EF29F0B1EF29F0A951800A970FD8B063
:10533E00A3EF29F0A5EF29F0A7EF29F06AEF29F0E6
:10534E00D890A333A233A133A033A93FA7EF29F0FE
:10535E00C9EF29F01F0EA965B7EF29F0B9EF29F0B3
:10536E00C1EF29F06AEF29F0D890A037A137A23704
:10537E00A337A907A951D8A4C7EF29F0C9EF29F07F
:10538E00BBEF29F0A851D8B4CFEF29F0D1EF29F017
:10539E00D9EF29F0A31FA21FA11FA06D000EA123FC
:1053AE00A223A323A0C5A0F5A1C5A1F5A2C5A2F570
:1053BE00A3C5A3F5120065EC2DF0740E0501606F08
:1053CE005B0E616F000E626FC2EC2DF0D68E000E7A
:1053DE000501B76FCE0EB725D96EDA6A050EDA2241
:1053EE00DF50B2EC2DF08AEC2DF00009D8B402EFAC
:1053FE002AF004EF2AF0FAEF29F046EC2DF060C502
:10540E00B3F561C5B4F5B3C5AAF5B4C5ABF530ECCB
:10541E002BF00501B751020DC20EF324D96E050E05
:10542E00F420DA6EAAC5DEF4ABC5DDF4B72B020E9E
:10543E00B76524EF2AF026EF2AF0F1EF29F0000EDF
:10544E00B86FCB0EB825D96EDA6A050EDA22DF50A8
:10545E00B2EC2DF08AEC2DF00009D8B439EF2AF019
:10546E003BEF2AF031EF2AF046EC2DF060C5B5F592
:10547E0061C5B6F5B5C560F5B6C561F5A9EC2DF0FB
:10548E000501B26FC80EB825D96EDA6A050EDA229A
:10549E00B2C5DFF4B82B020EB86558EF2AF05AEFFA
:1054AE002AF028EF2AF0EEEF29F00DEF00F0206E33
:1054BE00000E1C6E17507EEC2DF01F6E1FA06AEFB3
:1054CE002AF06CEF2AF0CFEF2AF017500C0D580E81
:1054DE00F324D96E010EF420DA6EDEC41DF5DDC4A0
:1054EE001EF51D501E10D8B47FEF2AF081EF2AF062
:1054FE00CFEF2AF01DC50CF51EC50DF518C50EF51E
:10550E0019C50FF56BEC27F017500C0D510EF32447
:10551E00D96E010EF420DA6E000EDB802050020DE3
:10552E00D20EF324D96E050EF420DA6EDF2A175050
:10553E0056EC2DF01A6E2050020DD20EF324D96EB9
:10554E00050EF420DA6E1A50DE5CD8A0B1EF2AF008
:10555E00B3EF2AF0BCEF2AF02050020DD20EF32446
:10556E00D96E050EF420DA6EDF6A1FA6C1EF2AF09F
:10557E00C3EF2AF0CDEF2AF017500C0D540EF32482
:10558E00D96E010EF420DA6EF70EDF16010E1C6EC8
:10559E001C501200000E0301F96F000EFA6F000E80
:1055AE00D86F000EFB6F000ED96F000EDA6F000E73
:1055BE00DB6F000EDC6F000EDF6F000EE06F000E73
:1055CE00E36F000EE46F000EE56F000EE66F000E47
:1055DE00E76F000EEA6F000EEB6F000EEC6F000E21
:1055EE00EE6F000EEF6F000EF06F000EF16F000EFB
:1055FE00F26F000EF36F000EF46F100EF56F000ECB
:10560E00F66F000EF76F000EF86F000EFC6FAF9482
:10561E00AF96B090000E0501606F000E616F000E28
:10562E00626FD7EC2DF0000E0501606F000E616FFA
:10563E00000E626FC9EC2DF0000E0501606F000EBA
:10564E00616F000E626FD0EC2DF0840E0301F36FCC
:10565E001200000E05018B6F000E8C6F800E8D6F89
:10566E00450E8E6F330E726F330E736F530E746F53
:10567E00400E756FAA51AC6FAB51AD6FAE6BAF6B89
:10568E000A0ED890AC37AD37AE37AF37E82E48EFAD
:10569E002BF0ACC560F5ADC561F5AEC562F5AFC515
:1056AE0063F5000E82EC28F060C56EF561C56FF5EE
:1056BE0062C570F563C571F587EC23F06EC587F58D
:1056CE006FC588F570C589F571C58AF59DEC25F015
:1056DE0087C5A0F588C5A1F589C5A2F58AC5A3F52C
:1056EE005EEC29F0A0C5B0F5A1C5B1F5D8900501C5
:1056FE00B035AA6FB135AB6F12000501626F000EA7
:10570E000501616FDEEC2DF00501606F040E60196E
:10571E00D8B494EF2BF096EF2BF0A7EF2BF0620599
:10572E00D8B49CEF2BF09EEF2BF0A7EF2BF0040ECE
:10573E006219D8A4A5EF2BF0A7EF2BF0CCEF2BF02E
:10574E000101035105016219F80B62190101036F82
:10575E00BEEF2BF001011DA9B7EF2BF0B9EF2BF027
:10576E00BEEF2BF0020E0501616FCEEF2BF002396A
:10577E00E832070B05016219D8A4C8EF2BF0CAEF67
:10578E002BF0B1EF2BF0CEEF2BF0010E616F6151CC
:10579E001200000EC26E000EC16E000EBE6E000E26
:1057AE00BF6E000EC06E070ECA6EC70EC66EEF0E2F
:1057BE00C76EC00EC86E0E0EC96EFD0E0401186FB8
:1057CE001069DF0E086F070E206F0069000E196F4B
:1057DE00000E216F000E096F000E016F000E116F8B
:1057EE00000E226F000E026F000E0A6F000E126F77
:1057FE00000E1A6F03690B6913691B69070E236F7D
:10580E0004690C6914691C690F0E246F190E0201CC
:10581E003D6F460E196F12000E0EF66E370EF76EB6
:10582E00000EF86E01EED3F114EE00F00900F5C48F
:10583E00EEF4E550E150FAE1E250F8E1C60EF66EF4
:10584E005B0EF76E000EF86E01EECBF110EE08F067
:10585E000900F5C4EEF4E550E150FAE101EEC2F1B3
:10586E00090EEE6AE806FDE101EE33F10B0EEE6A6B
:10587E00E806FDE10401080E5D6F000E5E6F000E7E
:10588E005F6F0001E2EF29F00101018F040E84EC3D
:10589E002BF00009D8A456EF2CF058EF2CF074EF33
:1058AE002CF0000E01014C6F380E4D6F000E4E6F36
:1058BE00000E4F6F600E006F970E016F100E026F8D
:1058CE009FEC2DF095EC2DF0EFEC2CF0E9EC2DF09B
:1058DE0006EC2DF0060E84EC2BF01200FAC42DF51A
:1058EE00FBC42EF5F6C42FF5F7C430F5F8C431F528
:1058FE00F5C432F5A2A886EF2CF088EF2CF091EFCC
:10590E002CF0B2A88DEF2CF08FEF2CF091EF2CF045
:10591E001CEC2DF032C5F5F431C5F8F430C5F7F4B2
:10592E002FC5F6F42EC5FBF42DC5FAF41100246E26
:10593E00000E256E2550020DD10EF324D96E050EE4
:10594E00F420DA6E2450DE18D8A4B0EF2CF0B2EFAB
:10595E002CF0BDEF2CF024C517F521C518F522C586
:10596E0019F525505EEC2AF0C6EF2CF0252A2550AD
:10597E00D8B4C4EF2CF0C6EF2CF0A1EF2CF012002F
:10598E0003C509F504C50AF501C507F502C508F5F5
:10599E00E1EF2CF009C5D9F40AC5DAF4DF500B6E2D
:1059AE00094A0A2A07C5D9F408C5DAF40BC5DFF48B
:1059BE00074A082A0506D8A00606052806E1062885
:1059CE00D8A4ECEF2CF0EEEF2CF0D1EF2CF012006F
:1059DE00040E01015C6F040E5D6F600E5E6F000EB3
:1059EE005F6FD40E0501606F5B0E616F000E626F0C
:1059FE00C2EC2DF001011E83B298A2881200000E97
:105A0E000501606F6051020DD20EF324D96E050EA2
:105A1E00F420DA6EDF6A602B6051D8B419EF2DF0E6
:105A2E001BEF2DF009EF2DF01200010160A522EF02
:105A3E002DF024EF2DF031EF2DF002D831EF2DF0B7
:105A4E000500FA6E3350FD6E3450FE6E3550FF6E0B
:105A5E00FA5012001200000E0001606F000E616F0E
:105A6E00000E626F000E636F000E646F000E656FA6
:105A7E00000E666F000E676F000E686F1200030156
:105A8E00EB510501636F626B0301EA51050162255B
:105A9E00606F0301000E05016321616F1200026E3B
:105AAE0002500C0D530EF324D96E010EF420DA6E53
:105ABE00DF50016E1F0E011601281200E7EC2DF0CB
:105ACE0032EC2DF0D0EC2BF0D1EC2AF072EC2DF064
:105ADE004BEC2CF01200700E0001AD6F000EAF6F8C
:105AEE00000EB36F020EB16F000EB06F1200016E9A
:105AFE0001500C0D540EF324D96E010EF420DA6E03
:105B0E00DF50090B12000301F3A190EF2DF093EF7C
:105B1E002DF0010E94EF2DF0000E1200000E01017B
:105B2E00506F040E516F600E526F000E536F1200C5
:105B3E000F0E0101046F0F0E056F3E0E066F000E65
:105B4E00076F1200D30E05016025D96E050E612177
:105B5E00DA6EDF5012000501606F60C5ECF30301D1
:105B6E00F38FF3811200260E216E050E226E010EAA
:105B7E009EEC2CF0120060C533F561C534F562C59C
:105B8E0035F5120060C5BCF561C5BDF562C5BEF543
:105B9E00120060C5B9F561C5BAF562C5BBF5120054
:105BAE0060C5BFF561C5C0F562C5C1F51200010142
:105BBE000239E832070B1200090A0B00010201003C
:085BCE00D69A12001200120029
:020000040030CA
:10000000FAEFF7FF9FFFFFFFFFFFFFFFFFFFFFFF7D
:03001000FFFFFFF0
:08001700FFFFFFFFFFFFFFFFE9
:00000001FF
