:040000000DEF00F010
:040008000DEF23F0E5
:06001800FF008CEF23F055
:0D400000000001020304050607085001003E
:10400E00B1EC23F003C523F504C524F505C525F54C
:10401E0006C526F507C527F508C528F509C529F5EE
:10402E000AC52AF54C50D8B41FEF20F021EF20F02E
:10403E00B5EF20F005016851235C1B6E69512458C1
:10404E001C6E6A5125581D6E6B5126581E6E6C5192
:10405E0027581F6E6D512858206E6E512958216EAB
:10406E006F512A58226E2250211020101F101E1040
:10407E001D100BE1E90E1B5C030E1C58D8A04AEF75
:10408E0020F04CEF20F04FEF20F04C6AFAEF20F0CA
:10409E006851235C1B6E695124581C6E6A51255859
:1040AE001D6E6B5126581E6E6C5127581F6E6D512A
:1040BE002858206E6E512958216E6F512A58226E43
:1040CE002250211020101F101E101D100BE1F50E96
:1040DE001B5C010E1C58D8A077EF20F079EF20F072
:1040EE0097EF20F0000E2C6E000E2B6E2BC503F5F5
:1040FE002CC504F5000E056E78EC21F02B4A2C2A07
:10410E002CBE93EF20F02C5009E1050E2B5CD8A0AD
:10411E0093EF20F095EF20F07DEF20F0FAEF20F0F6
:10412E00000E2E6E000E2D6E2DC503F52EC504F558
:10413E00010E056E78EC21F02D4A2E2A2EBEB1EF1F
:10414E0020F02E5009E1050E2D5CD8A0B1EF20F025
:10415E00B3EF20F09BEF20F0FAEF20F0BDEF20F050
:10416E0026EC22F0D2EF20F0D2EF20F055501B6E4D
:10417E001C6A1C50000AD8B4C7EF20F0D2EF20F012
:10418E001B50000AD8B4B7EF20F0010AD8B4BBEF29
:10419E0020F0D2EF20F02F6A2FC503F5046A2FC549
:1041AE001BF5010E1C6E1B2ADFEF20F0D8901C367B
:1041BE001B2EDDEF20F01C5050140009D8A4EAEF9E
:1041CE0020F0EDEF20F0010EEEEF20F0000E056E68
:1041DE0078EC21F02F2A040E2F64F8EF20F0FAEF7E
:1041EE0020F0D3EF20F012005CEC24F079EC24F0F8
:1041FE0038EC23F0D68E000E316EAA0E306EA1EC86
:10420E0024F0B1EC23F003C590F504C591F505C576
:10421E0092F506C593F507C594F508C595F509C53C
:10422E0096F50AC597F50501986B07EC20F004008A
:10423E00B1EC23F003C532F504C533F505C534F5ED
:10424E0006C535F507C536F508C537F509C538F580
:10425E000AC539F505019051325C3A6E91513358C9
:10426E003B6E925134583C6E935135583D6E94517D
:10427E0036583E6E955137583F6E96513858406EAF
:10428E0097513958416E415040103F103E103D102D
:10429E003C100BE1E90E3A5C030E3B58D8A05AEFE6
:1042AE0021F05CEF21F01CEF21F0982B98C530F532
:1042BE00316AA1EC24F0B1EC23F003C590F504C5EE
:1042CE0091F505C592F506C593F507C594F508C594
:1042DE0095F509C596F50AC597F51CEF21F00DEF7A
:1042EE0000F0C0EF21F00550D8B480EF21F082EF3E
:1042FE0021F085EF21F0C082E2EF21F0C092E2EFD3
:10430E0021F00550D8B48EEF21F090EF21F093EF0D
:10431E0021F0C084E2EF21F0C094E2EF21F00550CD
:10432E00D8B49CEF21F09EEF21F0A1EF21F0C086D2
:10433E00E2EF21F0C096E2EF21F00550D8B4AAEFDB
:10434E0021F0ACEF21F0AFEF21F0C088E2EF21F0C9
:10435E00C098E2EF21F00550D8B4B8EF21F0BAEFD3
:10436E0021F0BDEF21F0C08AE2EF21F0C09AE2EF1A
:10437E0021F003C506F504C507F50750000AD8B4A9
:10438E00CBEF21F0E2EF21F00650000AD8B47AEF1D
:10439E0021F0010AD8B488EF21F0030AD8B496EFC1
:1043AE0021F0010AD8B4A4EF21F0070AD8B4B2EF75
:1043BE0021F0E2EF21F01200056E046AE9EC24F020
:1043CE00036E040E0318D8B4EFEF21F0F1EF21F0D5
:1043DE0002EF22F00504D8B4F7EF21F0F9EF21F047
:1043EE0002EF22F0040E0518D8A400EF22F002EF1F
:1043FE0022F022EF22F0010103510518F80B0518E7
:10440E00036F15EF22F01DA90FEF22F011EF22F02E
:10441E0015EF22F0020E046E24EF22F00239E8327C
:10442E00070B0518D8A41EEF22F020EF22F00AEF9A
:10443E0022F024EF22F0010E046E04501200186ACE
:10444E00B1EC23F0000E1A6E000E196E5150136E61
:10445E00146A140E1902F3C415F5F4C416F51A02F3
:10446E00F35016261350155C1650800A176E145012
:10447E00800A1758D8B046EF22F048EF22F056EFD8
:10448E0022F019C513F5010E146E132A51EF22F006
:10449E00D8901436132E4FEF22F014501812194ADA
:1044AE001A2A1ABE64EF22F01A5009E1050E195CA1
:1044BE00D8A064EF22F066EF22F02DEF22F0185014
:1044CE0012000301F96BFA6BD86BFB6BD96BDA6BCD
:1044DE00DB6BDC6BDF6BE06BE36BE46BE56BE66B6E
:1044EE00E76BEA6BEB6BEC6BEE6BEF6BF06BF16B00
:1044FE00F26BF36BF46B100EF56FF66BF76BF86BEC
:10450E00FC6BAF94AF96B090000E036E000E046E6F
:10451E00000E056EE2EC24F0000E036E000E046E2B
:10452E00000E056ED4EC24F0000E036E000E046E29
:10453E00000E056EDBEC24F0840E0301F36F120007
:10454E00C26AC16ABE6ABF6AC06A070ECA6EC70E69
:10455E00C66EAF0EC76EC00EC86E0E0EC96EFD0EC5
:10456E000401186F10695F0E086F070E206F006947
:10457E00196B216B096B016B116B226B026B0A6B52
:10458E00126B1A6B03690B6913691B69070E236F94
:10459E0004690C6914691C690F0E246F200E020148
:1045AE000F6F190E3D6F460E196F0F0E726F1200C0
:1045BE000201A56BA66BA76BA86BA96BAA6BB00EBD
:1045CE00AB6F800EAC6FAD6B110EAE6F040EAF6F96
:1045DE00B06BB16BB26BB36B000E036E000E046E5C
:1045EE00000E056EB8EC24F0000E036E000E046E85
:1045FE00000E056EB1EC24F0000E036E000E046E7C
:10460E00000E056EBFEC24F0526A1200FAC401F5DA
:10461E00FBC402F5A1AE16EF23F018EF23F023EF43
:10462E0023F0B1AE1DEF23F01FEF23F023EF23F0A5
:10463E00EEEC23F033EF23F0A2A828EF23F02AEFBD
:10464E0023F033EF23F0B2A82FEF23F031EF23F056
:10465E0033EF23F008EC24F002C5FBF401C5FAF4A5
:10466E00110004011093C8921293C0821095C89441
:10467E001295C0841097C8961297C0861099C89844
:10468E001299C088109BC89A129BC08A010E4C6E5C
:10469E00B1EC23F003C568F504C569F505C56AF5E7
:1046AE0006C56BF507C56CF508C56DF509C56EF544
:1046BE000AC56FF512000101018F040EE3EC21F023
:1046CE000009D8A46DEF23F06FEF23F08BEF23F0EA
:1046DE00000E01014C6F380E4D6F000E4E6F000E26
:1046EE004F6F600E006F970E016F100E026F98ECF9
:1046FE0024F0A9EC24F01FEC24F0F5EC24F048ECA7
:10470E0024F0060EE3EC21F01200E60EF66E490ED2
:10471E00F76E000EF86E0900F5C453F50900F5C4E6
:10472E0054F50900F5C455F501EE60F11B0EEE6A65
:10473E00E806FDE101EE42F1110EEE6AE806FDE13A
:10474E000401080E5D6F000E5E6F000E5F6F0001BC
:10475E00FBEF20F0D69E60C50BF561C50CF562C56A
:10476E000DF563C50EF564C50FF565C510F566C587
:10477E0011F567C512F5D68E0BC503F50CC504F5FC
:10478E000DC505F50EC506F50FC507F510C508F5DF
:10479E0011C509F512C50AF51200136E13C555F5AC
:1047AE00000E4B6E000E4A6EB1EC23F003C542F5BF
:1047BE0004C543F505C544F506C545F507C546F5DB
:1047CE0008C547F509C548F50AC549F51200B19E59
:1047DE000501845185118611D8B4F8EF23F0FAEF54
:1047EE0023F007EF24F002D807EF24F00500FA6E4D
:1047FE008451FD6E8551FE6E8651FF6EFA50120089
:10480E001200010160A50EEF24F010EF24F01EEF50
:10481E0024F002D81EEF24F00500FA6E0501705147
:10482E00FD6E7151FE6E7251FF6EFA501200120043
:10483E00040E01015C6F040E5D6F600E5E6F5F6BA8
:10484E00EE0E036E490E046E000E056ECDEC24F0D6
:10485E0001011E83B298A2881200800E03011B6F05
:10486E001E0E196F186BB19EA18EEC0E036E490EC3
:10487E00046E000E056EC6EC24F0800E03011A6F56
:10488E001200036A0350020D540EF324D96E050E66
:10489E00F420DA6EDF6A032A0350D8B459EF24F0FD
:1048AE005BEF24F049EF24F01200F1EC24F084ECDD
:1048BE0024F068EC22F0A7EC22F08FEC24F034EC1C
:1048CE0024F0DFEC22F062EC23F01200010E050161
:1048DE006027000E6123622363236423652366230E
:1048EE0067231200DA0E036E480E046E000E056E7C
:1048FE00C6EC24F0EEEC24F012000001606B616B4C
:10490E00626B636B646B656B666B676B686B1200D7
:10491E00700E0001AD6FAF6BB36B020EB16FB06B6B
:10492E0012000F0E0101046F0F0E056F3E0E066F83
:10493E00076B120030C550F5010ED4EC23F007ECD6
:10494E0020F012000101506B040E516F600E526F79
:10495E00536B120003C57EF504C57FF505C580F5C2
:10496E00120003C581F504C582F505C583F5120055
:10497E0003C57BF504C57CF505C57DF5120003C5A1
:10498E0084F504C585F505C586F5120003C570F5D9
:10499E0004C571F505C572F5120003C58AF504C587
:1049AE008BF505C58CF5120003C587F504C588F592
:1049BE0005C589F5120003C58DF504C58EF505C52F
:1049CE008FF5120001010239E832070B12000301C4
:0B49DE001A8F1200D69A12000100018F
:0649EA0012001200120091
:020000040030CA
:10000000FAEFF7FFE7C7FFFFFFFFFFFFFFFFFFFF6D
:03001000FFFFFFF0
:08001700FFFFFFFFFFFFFFFFE9
:00000001FF
